{
    "contractName": "Types",
    "abi": [
        {
            "inputs": [],
            "name": "get_choice",
            "outputs": [
                {
                    "internalType": "enum Types.week_days",
                    "name": "",
                    "type": "uint8"
                }
            ],
            "stateMutability": "view",
            "type": "function"
        },
        {
            "inputs": [],
            "name": "getdefaultvalue",
            "outputs": [
                {
                    "internalType": "enum Types.week_days",
                    "name": "",
                    "type": "uint8"
                }
            ],
            "stateMutability": "pure",
            "type": "function"
        },
        {
            "inputs": [],
            "name": "set_value",
            "outputs": [],
            "stateMutability": "nonpayable",
            "type": "function"
        }
    ],
    "bytecode": "608060405234801561001057600080fd5b5060d58061001f6000396000f3fe6080604052348015600f57600080fd5b5060043610603c5760003560e01c8063630f7035146041578063bd72e4fc146061578063f1388f46146067575b600080fd5b600054610100900460ff165b604051605891906078565b60405180910390f35b6006604d565b6000805461ff001916610300179055005b6020810160078310609957634e487b7160e01b600052602160045260246000fd5b9190529056fea2646970667358221220101f72f380b43f9340c0a780fb6fdf62ac2fd234b6e4b7407c041fdcecf75bbb64736f6c63430008130033",
    "sourcePath": "/home/sabinthapa/Desktop/Solidity/enums.sol",
    "compiler": {
        "name": "solc",
        "version": "0.8.19+commit.7dd6d404"
    },
    "functionHashes": {
        "get_choice()": "630f7035",
        "getdefaultvalue()": "bd72e4fc",
        "set_value()": "f1388f46"
    },
    "gasEstimates": {
        "creation": {
            "codeDepositCost": "42600",
            "executionCost": "93",
            "totalCost": "42693"
        },
        "external": {
            "get_choice()": "2323",
            "getdefaultvalue()": "239",
            "set_value()": "24366"
        }
    }
}